S01700004763634170706C69636174696F6E312E737265635B
S11300000C9434000C943E000C943E000C943E007E
S11300100C943E000C943E000C943E000C943E0064
S11300200C943E000C943E000C943E000C943E0054
S11300300C943E000C943E000C943E000C943E0044
S11300400C943E000C943E000C943E000C943E0034
S11300500C943E000C943E000C943E000C943E0024
S11300600C943E000C943E0011241FBECFEFD4E04C
S1130070DEBFCDBF0E9440000C9458000C940000D9
S11300808FEF84B981E085B92FEF34E39CE02150F0
S113009030409040E1F700C0000015B82FEF34E382
S11300A09CE0215030409040E1F700C00000EBCFCD
S10700B0F894FFCFEE
S9030000FC
