S00B000050574D2E7372656325
S11300000C9434000C943E000C943E000C943E007E
S11300100C943E000C943E000C943E000C943E0064
S11300200C943E000C943E000C943E000C943E0054
S11300300C943E000C943E000C943E000C943E0044
S11300400C943E000C943E000C943E000C943E0034
S11300500C943E000C943E000C943E000C943E0024
S11300600C943E000C943E0011241FBECFEFD4E04C
S1130070DEBFCDBF0E9453000C94A2000C9400007C
S113008020E030E04FEF2817390714F445B901C0D8
S113009015B856EA5A95F1F700C02F5F3F4F243642
S11300A0310589F708958FEF84B904E610E0C0E0C4
S11300B0D0E0CC9FC001CD9F900D900D1124B801CC
S11300C00E947A00CB010E9440002196C436D105DB
S11300D081F7C4E6D0E0CC9FC001CD9F900D900D78
S11300E01124B8010E947A00CB010E94400021979C
S11300F091F7DDCF97FB072E16F4009407D077FD18
S113010009D00E948E0007FC05D03EF4909581959D
S11301109F4F0895709561957F4F0895AA1BBB1B4F
S113012051E107C0AA1FBB1FA617B70710F0A61BF3
S1130130B70B881F991F5A95A9F780959095BC0114
S10B0140CD010895F894FFCFEE
S9030000FC
